:020000040800F2
:10000000301600205D0400105F0400105F04001033
:100010005F0400105F0400105F0400105F04001014
:100020005F0400105F0400105F0400100F06002042
:100030005F0400105F040010B50500205F0400108D
:100040005D4400105D06002095440010C14400107E
:100050005F0400105F0400105F0400105F040010D4
:100060005F0400105F0400101D4E00109506002074
:100070005F0400105F040010754600105F0400105C
:100080005F0400105F0400105F0400105F040010A4
:100090005F0400105F0400105F0400105F04001094
:1000A0005F0400105F0400105F0400105F04001084
:1000B0005F0400105F0400105F0400105F04001074
:1000C0005F0400102D4C00105F0400105F0400104E
:1000D0005F0400105F0400105F0400105F04001054
:1000E0005F0400105F0400105F0400105F04001044
:1000F0005F0400105F0400105F0400105F04001034
:100100005F0400105F0400105F0400105F04001023
:100110005F0400105F0400105F0400105F04001013
:10012000D3DEFFFF42012110030200000000001097
:10013000FF03000000000000793512AB53B94AB943
:10014000002908BF00281CBF4FF0FF314FF0FF30DF
:1001500000F082B9ADF1080C6DE904CE00F006F8AC
:10016000DDF804E0DDE9022304B070472DE9F04F2B
:10017000099D04460F46002B48D18A42944661D916
:10018000B2FA82F343B1C3F120019F4002FA03FCAB
:100190009C4020FA01F10F434FEA1C411FFA8CFEEC
:1001A000220CB7FBF1F601FB167706FB0EF042EAD4
:1001B0000742904208D91CEB020206F1FF3702D237
:1001C000904200F237813E46121AA4B2B2FBF1F01F
:1001D00001FB102200FB0EFE44EA0244A64508D9AA
:1001E0001CEB040400F1FF3202D2A64500F21C8190
:1001F000104640EA0640A4EB0E0400261DB1DC4088
:100200000023C5E900433146BDE8F08F8B4209D990
:10021000002D00F0FD800026C5E900013046314682
:10022000BDE8F08FB3FA83F6002E4BD18B42C0F0BD
:10023000F280824240F2EF803046002DE3D0C5E9E3
:100240000047E0E702B9FFDEB2FA82F3002B40F08C
:100250009D80891A4FEA124E97B20126200CB1FBFD
:10026000FEF20EFB121140EA014107FB02F0884248
:100270000FD91CEB010102F1FF382CBF4FF001092F
:100280004FF00009884203D9B9F1000F00F0CF8088
:100290004246091AA4B2B1FBFEF00EFB101100FB9E
:1002A00007F744EA0144A74208D91CEB040400F113
:1002B000FF3102D2A74200F2B4800846E41B40EAB4
:1002C00002409BE7C6F12007B34001FA06F422FA88
:1002D00007FCF940B2404CEA030C20FA07F34FEA5E
:1002E0001C491C431FFA8CFE00FA06F3200CB1FBDC
:1002F000F9F809FB181140EA014108FB0EF08842A9
:100300000FD91CEB010108F1FF3A2CBF4FF0010B94
:100310004FF0000B884203D9BBF1000F00F08D8035
:10032000D046091AA4B2B1FBF9F009FB101100FB89
:100330000EFE44EA01418E4507D91CEB010100F194
:10034000FF3401D28E457FD8204640EA0840A1EB19
:100350000E01A0FB029841454C46C64602D306D189
:100360004B4504D20138B9EB020468EB0C0E002DAA
:1003700070D01A1B61EB0E0122FA06F301FA07F79F
:10038000F14000261F43C5E900713CE702FA03FC77
:10039000C3F1200001FA03F221FA00F64FEA1C4EE5
:1003A00024FA00F11FFA8CF79C401143B6FBFEF0D3
:1003B0000A0C0EFB106642EA064200FB07F6964264
:1003C0000ED91CEB020200F1FF382CBF4FF00109DF
:1003D0004FF00009964202D9B9F1000F31D04046E2
:1003E000921B89B2B2FBFEF60EFB162241EA0241D5
:1003F00006FB07F28A4207D91CEB010106F1FF3820
:1004000001D28A4223D84646891A46EA004625E7A1
:100410002E462846F7E6841A61EB030301201F46A7
:100420000BE76444023849E764440238E1E6023AE3
:1004300061442EE7023E6244C6E6A8F10208614428
:100440006FE702386244CBE7023861447DE7023E41
:100450006144D9E72E46D6E6704700BF02E001F0BE
:10046000BFFEFEE772B6694880F30888684880F3EB
:100470000A88684880F30988674880F30B886748D2
:100480006749086040F20000CCF200004EF634717B
:10049000CEF200010860BFF34F8FBFF36F8F4EF6AF
:1004A0008851CEF20001086840F20002C0F2F0026A
:1004B00020EA020040EA02000860BFF34F8FBFF35A
:1004C0006F8F4FF00000E1EE100A4EF63C71CEF255
:1004D00000010860022080F31488BFF36F8F03F0DF
:1004E00071FF01F0A1FE4FF055304949474A914252
:1004F0003CBF41F8040BFAE74749464A91423CBFEA
:1005000041F8040BFAE74749474A484B9A423EBF35
:1005100051F8040B42F8040BF8E700204449454A1F
:1005200091423CBF41F8040BFAE703F053FF01F09E
:1005300087FE414C414DAC4203DA54F8041B884716
:10054000F9E701F027FA3E4C3E4DAC4203DA54F88D
:10055000041B8847F9E703F037BF00BF72B63A487B
:1005600080F30888394880F30A88394880F309887D
:10057000384880F30B8829482949086040F2000078
:10058000CCF200004EF63471CEF200010860BFF3E9
:100590004F8FBFF36F8F4EF68851CEF2000108687F
:1005A00040F20002C0F2F00220EA020040EA02003B
:1005B0000860BFF34F8FBFF36F8F4FF00000E1EE85
:1005C000100A4EF63C71CEF200010860022080F362
:1005D0001488BFF36F8F04F0A3FB03F0F7FE4FF016
:1005E00055301A49184A91423CBF41F8040BFAE7CA
:1005F0001849174A91423CBF41F8040BFAE704F04E
:10060000FBFB04F0FFFB03F0E3BE0000301600200C
:100610003010002030320020301600200000001082
:1006200008ED00E0FC080010000000203010002061
:1006300040780020308900203C0100103C0100106F
:100640003C0100103C010010303800203032002006
:10065000307800203038002032666565656330668A
:100660003934386266323038000000001210000061
:100670001211000012130000AC7F0020387C002013
:100680005250323335302C42300000000700000059
:100690000001000000040000000000000010000045
:1006A0000000001000004000504C4C206C6F636B49
:1006B0002074696D656F757400000000584F5343D6
:1006C00020737461626C652074696D656F75740068
:1006D00000000000AD260010B52600102D270010E8
:1006E000D9260010A9270010DD260010F1260010E1
:1006F000A5300010AD300010000000008131001066
:100700006D310010A931001095310010A131001099
:100710008D31001079310010653100100132001068
:10072000000000006D360010AD350010913600104D
:10073000DD35001075360010B53500106936001033
:10074000A93500108D3400100000000001000000E9
:100750000000000063300000540700103016002035
:1007600030320020607E0020A07F00206E6F6E611E
:100770006D6500004172647550696C6F74002542AC
:100780004F415244252D424C002553455249414C7E
:10079000250000000200000000000000B53300103A
:1007A0003934001040004000488400206484002058
:1007B0000300000000000000893400100000000069
:1007C000100000007C8400200000000058870020FA
:1007D0000101020051400010313F0010D53F0010D0
:1007E000B13F001043000000EC0700100902430075
:1007F000020100C0320904000001020201000524C8
:100800000010010524010001042402020524060051
:1008100001070582030800FF09040100020A000025
:1008200000070501024000000705810240000000AA
:1008300012000000380800101201100102000040F0
:1008400009124157000201020301000004030904D8
:1008500025424F41524425004C617572656C7632D9
:10086000003031323334353637383941424344452C
:1008700046000000E0500010308900203089002040
:10088000308900200000000000000000000000008F
:100890000000000000000000000000000000000058
:1008A0000000000000000000000000000000000048
:1008B000000000002C190010000008200000082093
:1008C000000008202C190010001108200011082039
:1008D0000011082000000000D53800105D3B00101A
:1008E000F93B0010400040003C8800205888002060
:1008F0006D61696E0069646C6500FFFF0000005067
:100900000000005000000000010000000000005046
:1009100040000050010000000200000000000050F4
:1009200080000050020000000400000000000050A1
:10093000C00000500300000008000000000000504C
:1009400000010050040000001000000000000050F2
:100950004001005005000000200000000000005091
:100960008001005006000000400000000000005020
:10097000C00100500700000080000000000000508F
:1009800000020050080000000001000000000050BC
:10099000400200500900000000020000000000506A
:1009A000800200500A000000000400000000005017
:1009B000C00200500B0000000008000000000050C2
:1009C000000300500C000000001000000000005068
:1009D000400300500D000000002000000000005007
:1009E000800300500E000000004000000000005096
:1009F000C00300500F00000000800000BF00000096
:100A00000000000000003F0000000000FF000000A8
:100A100000000000000000000000000000000000D6
:100A200000000D4000000000000000000000000079
:100A300000000000000000000000000000000000B6
:100A40000000000000000000009600000000080008
:100A50009600000000080000040000004C08001090
:100A60000000000000000000000000000000000086
:100A7000000000000000000080D1F0080000ADDEA2
:100A80000000000000000000000000000022074BF2
:100A900003F8082BB3F1E05FFAD1BFF34F8FBFF338
:100AA0006F8F034B42691A60704700BF00C0FF1B85
:100AB00000800C4003691A6812F00202FBD11A6030
:100AC0008269DA60C2691A61026A5A61426A1A620C
:100AD000826A5A62C26A9A62026BDA62426B1A6373
:100AE000D4E770B51C4653EA040500D170BD056813
:100AF00033B16E0504D469B111F8016B4660013B56
:100B0000002CF0D0ED03EED485680AB102F8015B49
:100B1000013CE8E70E46F1E7036821B123F0040346
:100B200003600368704743F00403F9E7F8B50E4625
:100B3000044600211546069F1A46FFF7EDFF466062
:100B40002368DB03FCD4A36827B13B462946204633
:100B5000FFF7C7FF2046BDE8F8400121DCE700238E
:100B600007B51A4606210093FFF7E0FF03B05DF8D2
:100B700004FB30B5144687B0054600690391FFF7C2
:100B8000EEFF230C8DF81430230A8DF81530032363
:100B9000039900932869002305AA8DF81640FFF7F2
:100BA000C5FF07B030BD30B50446012585B00DF155
:100BB0000F030022052120690095FFF7B7FF9DF87C
:100BC0000F30DB07F3D405B030BD2DE9FF410D46F2
:100BD00004460669984630461746FFF7C0FF2B0CBF
:100BE0008DF80C3000212B0A20698DF80D308DF81E
:100BF0000E50FFF791FF02237360326812F48032C7
:100C0000FBD1B368206903A903230192FFF769FFB1
:100C100043463946019A2069FFF763FF01212069A5
:100C2000FFF77AFF2046FFF7BEFF04B0BDE8F08172
:100C30002DE9F74304464A4B02691B684361D368B8
:100C400083611369C36153690362136A4362536A20
:100C50008362936AC362D36A0363136B436313684B
:100C600013F00208FBD13F4B3F4F1360BD680121D9
:100C700025F08C0646F084091046FFF74DFFC7F8B3
:100C80000890C7F80C90C7F81090C7F81490CDF8EA
:100C90000480019BB3F5006F5AD3042100235360F5
:100CA0001068C703FCD401399068F8D12069FFF7B8
:100CB00033FF2D4B46F088069E60DE601E615E614C
:100CC0000191019BB3F5006F46D3042100235360CB
:100CD0001068C603FCD401399068F8D1224B206912
:100CE0009D60DD6025F00C0545F008051D615D6126
:100CF000FFF712FF1D4B5360156815F00205FBD17D
:100D000001212069FFF708FF29462069FFF704FF4A
:100D100013685805FCD4164B536011684905FCD480
:100D20005360156815F00205FBD101212069FFF71A
:100D3000F3FE29462069FFF7EFFE0E4B5360136860
:100D40009B07FCD40121206903B0BDE8F043E3E632
:100D5000019B013301939CE7019B01330193B0E7B1
:100D600000800C400100800100000440F5001A00E2
:100D7000FF001000FF001A0013B50446CDE9002162
:100D8000FFF756FFDDE900212046FFF7F2FE20467F
:100D9000FFF709FF204602B0BDE810408AE61FB504
:100DA0000446CDE902210193FFF742FFDDE901325C
:100DB00020460399FFF709FF204604B0BDE8104024
:100DC00078E630B50446154685B00391FFF730FF4D
:100DD000206900224B21039B0095FFF7A7FE2046C8
:100DE00005B0BDE8304065E6FEE700004FF0504337
:100DF000FF22C3F88C21BFF34F8FBFF36F8F4FF0EB
:100E0000E0234FF0FF32D3F80001D3F80411C3F808
:100E10008021C3F88421BFF34F8FBFF36F8F02226D
:100E2000084B1A60BFF34F8F1A6852B94FF0E02396
:100E3000C3F80001C3F80411BFF34F8FBFF36F8FE6
:100E40007047F1E7A4880020144A154B70B5154986
:100E50005361154B19604FF0E023D3F8280DD3F8F8
:100E60002C1DD3F8084D9061D16114620F4A1060B7
:100E70005160D3F8345D9560D3F8E45DD560D3F864
:100E8000E85D1561EFF30986EFF30885566195611A
:100E9000D461C3F8280DC3F82C1DFEE700800D4077
:100EA0000100FAC1010000FA8001002080880020C2
:100EB00008B500F08BF8002808BF08BDBDE8084061
:100EC0000C31EFF309824FF00003EFF3148CA1E82B
:100ED000FC4FEFF30B82A1E804101EF0100F08BFC7
:100EE000A1EC108A0C30B0E8FC4F82F3098883F340
:100EF0001188B0E8041082F30B888CF314881EF07C
:100F0000100F08BFB0EC108A7047EFF3148CEFF3AA
:100F1000098292E803000C310C30EFF31183A1E851
:100F2000FC4FEFF30B82A1E804101EF0100F08BF76
:100F3000A1EC108AB0E8FC4F82F3098883F3118892
:100F4000B0E8041082F30B888CF314881EF0100FA5
:100F500008BFB0EC108A704708B500F0BDF8022257
:100F6000094BDA63102383F3118800F0C5F800F011
:100F70000BFA00F0CDF8002383F311884FF0805274
:100F8000024B5A6008BD00BF00000B4000ED00E0BE
:100F900038B500F0A1F84FF0A043D3F81C44094D38
:100FA000C3F81C44EB68234204D0284624EA030417
:100FB00000F0B8FB1035002CF4D14FF08052024BFA
:100FC0005A6038BD0000002000ED00E038B5102365
:100FD00083F3118800F096F800F006F9044650B14A
:100FE000084BDD6800F01AF90446294600F062F863
:100FF0002046294638BD00F091F884F31188204638
:101000002146F7E7787C00204FF0020080F3148837
:10101000002383F311882846A047002000F062FCDB
:10102000FEE70023826880F88C30D0F880301B689F
:1010300099689142FBD85A6803604260106058601A
:1010400070470023826880F88C30D0F880301B68AD
:1010500099689142FBD25A68036042601060586000
:10106000704738B50C46102383F3118800F044F81C
:1010700094F88C50032D07D0042D16D045B900F0FC
:1010800047F885F3118838BD0022D4F890301A60F3
:101090004FF0FF332046C4F89030FFF7D2FF00F046
:1010A00037F8002383F31188EDE7D4E900321360A9
:1010B0005A60EDE710B40C46064A00F19801D2F8E8
:1010C000AC3104F1980001335DF8044BC2F8AC3147
:1010D00000F072B9787C0020102383F31188054A50
:1010E000D2F8A8310133C2F8A831002383F3118864
:1010F000704700BF787C0020014800F079B900BF3C
:10110000407E0020014800F073B900BF287E002017
:10111000014800F073B900BF407E0020014800F094
:101120006DB900BF287E00200E4B37B51C68DD6806
:10113000226853601A60012284F88C20DC60AB685E
:10114000934201D100F06EFB2846FFF76AFF01468B
:1011500001902046FFF7AEFF2046019900DF03B063
:1011600030BD00BF787C00200E4B13B5D9681C68D9
:1011700081F88C00226853601A600122DC60A36849
:1011800084F88C20934203D1019100F0E9FA01998F
:1011900020460191FFF78EFF2046019900DF02B043
:1011A00010BD00BF787C002030B50D4B0446DD68D3
:1011B0004B1C87B010D02B4668460A4A00F09AF9BB
:1011C0002046FFF7D1FF009B13B1684600F05CF9A1
:1011D000D5F8900007B030BDFFF7C6FFF8E700BFB5
:1011E000787C002067070020044B1A68DB68906851
:1011F0009B68984294BF002001207047787C0020B3
:10120000FFF71FBF044B1A68DB6892689B689A421D
:1012100001D9FFF789BF7047787C002038B50A4BA9
:101220001C68DD68226853601A60012284F88C20F3
:10123000DC60AB68934201D100F0F4FA2846FFF776
:10124000F0FE204638BD00BF787C002070B5114EFE
:10125000C0F89010F36881689A680446914203D8F8
:10126000BDE87040FFF7EDBE1846FFF7DAFE836871
:101270000546012B01D100F0D5FA0123294620466D
:1012800084F88C30F460FFF715FF2046294600DF14
:1012900070BD00BF787C002010B5EFF311844CB90D
:1012A000EFF30583C3F3080310222BB182F31188F7
:1012B000FFF722FF204610BD82F31188FFF722FFBF
:1012C000F8E7000008B572B6054BC3F8A00100F0BE
:1012D000E1FA00F017FB0322024B1A70FEE700BF91
:1012E000787C0020A07F0020012330B50F4C87B010
:1012F000237000236846C4E90133042500F00AFB8B
:10130000684600F075F8684600F078F8013DF7D1BE
:10131000009B07490748A36000F0ECFA0223237002
:10132000FFF7FCFE85F3118807B030BDA07F0020D9
:1013300058070010787C0020102383F31188FFF7F2
:10134000E1BE102383F31188FFF7DCBE102383F383
:101350001188FFF7D7BE102383F31188FFF7CCBEA7
:1013600038B5054640B9EFF30584C4F3080424B149
:10137000FFF7CEFE85F3118838BDFFF743FFFFF777
:10138000CDFE84F31188F7E700F0BEB808B5FFF78B
:10139000C5FE002383F3118808BD08B5FFF7BEFE24
:1013A000002383F3118808BD08B5FFF7B7FE0023BB
:1013B00083F3118808BD00000C4B30B5D0E904243C
:1013C0005D68C3680133C3608368EB1AD21844F1C7
:1013D0000004C0E90424426883609342026888BF25
:1013E0004360934238BF03608D6030BD001000E061
:1013F000014B5B6883607047001000E00D4A0E4BA4
:101400009168C2685B680132C26082685B1A9B1A8D
:10141000D0E90421D21841F10001C0E90421426859
:1014200083609342026888BF4360934238BF036081
:10143000704700BFA07F0020001000E0036833B1B8
:10144000002202601846C3F89010FFF7D9BE70471B
:1014500007B50190FFF77AFF01990820FFF7A4FE76
:1014600003B05DF804EBFFF79FBF0000054BDB689E
:1014700029B10360C3F890000320FFF795BE4FF039
:10148000FF307047787C002010B5194C23699842D2
:101490000DD0D0E90032816813605A609A680A441E
:1014A0009A60002303604FF0FF33A36110BD234611
:1014B000026843F8102F53600022026022699A42AA
:1014C00003D1BDE8104000F0FDB9936881680B447A
:1014D000936000F03FF92269E1699268441AA242E0
:1014E000E4D9BDE810401144091A00F0F3B900BF77
:1014F000787C0020C0E90323002310B45DF8044B7E
:10150000436100F0CFB900002DE9F047DFF8C48057
:1015100008F110072E4ED8F8105000F01BF9D8F83B
:101520001C40AA68031B9A4242D84FF00009144499
:10153000C8F81C40D5E9003213605A60C5F8009025
:10154000D8F81030B34201D100F0BCF9FFF7E0FD4C
:1015500089F31188D5E9033128469847102383F38E
:101560001188FFF7C9FD6B69002BD4D000F0F2F8A9
:101570006A69A0EB04094A4582460DD2022000F0B8
:1015800081F90022D8F81030B34208D151462846DC
:10159000BDE8F04700F08EB9121A2244F2E712EBD0
:1015A000090938BF4A462946384600F015F8B1E720
:1015B000D8F81030B34208D01444211AC8F81C00DF
:1015C000A960BDE8F04700F085B9BDE8F08700BF2D
:1015D000887C0020787C002010B503689C68A242BB
:1015E0000CD85C688A600B604C6021605960996817
:1015F0008A1A9A604FF0FF33836010BD1B68121B7C
:10160000ECE7002310B5934203D0CC5CC454013303
:10161000F9E710BD03460244934202D003F8011BD0
:10162000FAE770470122090100F1604303F56143C5
:10163000C9B283F8001300F01F039A4043099B00CE
:1016400003F1604303F56143C3F880211A607047DA
:10165000102383F3118862B600232A4AD363E1EE94
:10166000103A4FF040415163022282F31488BFF3D5
:101670006F8F2549254AC86820F4E0600004000CFB
:101680000243CA60D1F8FC20214842F08072C1F8C0
:10169000FC20026842F001020260F022CB7781F860
:1016A00022201C4A0420C1F8C0204FF0E022C1F8DB
:1016B000C430C2F8983DC2F89C3DC2F8A03DC2F8C3
:1016C000A43DC2F8A83DC2F8AC3DC2F8B03DC2F896
:1016D000B43DC2F8B83DC2F8980DC2F89C3DC2F8BE
:1016E000A03DC2F8A43DC2F8A83DC2F8AC3DC2F886
:1016F000B03DC2F8B43DC2F8B83D0523C1F89430FE
:10170000704700BF00EF00E000ED00E00003FA05C5
:10171000001000E0FFBB4404014B1878704700BF85
:10172000128700204FF0C042436810B4D968DA60D5
:101730008268074B013253F8324034B103EBC203E5
:10174000586823465DF8044B18475DF8044B704712
:10175000A8880020014B986A704700BF00000B402A
:101760002DE9F0412C4C2378012B03D0022B12D011
:10177000BDE8F08104F1080000F0CCF804F120008D
:1017800000F0C8F8002304F10800A363FFF730FE5F
:1017900002232370ECE704F12000FFF72FFED4E9C9
:1017A0000C67D4F82C80002342463046394600F0BE
:1017B00061F800230546D4E90601626900F05AF891
:1017C0002B181DBF42F210706843B0FBF3F01846AF
:1017D000638F18BF80B28342104B38BF60871B688D
:1017E0002087B3424FF00003BB4108D2760846EA97
:1017F000C7767F08C4E90C674FEA5803E36294F8A0
:101800003C3023B10023237084F83C30B0E7044817
:10181000BDE8F041FFF7ECBD188700207C010020F7
:101820002087002010B5104C2378022B1AD104F128
:101830000800FFF7E3FDD4E906320C490968994234
:101840004FF00001914108D25B08616943EAC2731D
:101850005208C4E90632490861610548BDE81040F4
:10186000FFF7C6BD10BD00BF188700207C01002017
:101870003887002001B40248844601BC604700BF9D
:101880003D01001001B40248844601BC604700BF1E
:10189000114D001001B40248844601BC604700BFEE
:1018A0003143001001B40248844601BC604700BFC8
:1018B000C53E001001B40248844601BC604700BF29
:1018C000253E001001B40248844601BC604700BFB9
:1018D000ED36001001B40248844601BC604700BFE9
:1018E000853E001001B40248844601BC604700BF39
:1018F000993D001001B40248844601BC604700BF16
:10190000514C001001B40248844601BC604700BF3E
:10191000C143001001B40248844601BC604700BFC7
:101920000D3E00100000000000000000FFFFFFFF60
:101930000522144B2DE9F041DA624FF0504320228A
:10194000DFF84C80104E114F1A629A63D8F80C30B1
:1019500093F98D30002B13DB4FF050442025304697
:10196000A56103F09FFA3046256203F09BFA3046EA
:10197000A56103F097FA3846256203F093FAE5E78C
:10198000BDE8F08100800240A086010060E31600FF
:10199000787C00202DE9F34700F034FD2C4B2D4AD4
:1019A0001969914201BFED3A1A61002401261BBF5B
:1019B00040F6B8340026284D284D02F0E9FC0746D1
:1019C00003F010FB00283BD1254B9F423CD0013354
:1019D0009F42A3F5BF23A3F2FE7302BF1D4600245E
:1019E0000126002002F0DEFC194BDC611D620EB105
:1019F00000F0A8F8002500F013FE2F46DFF8508015
:101A0000DFF87090DFF870A0FEB246EA0903C8F86C
:101A10001C402046C8F8203046EA0A0600F01EF9AD
:101A2000C8F82060013700F08DF83DB902224FF46C
:101A300028710C4B0C48009502F064F90125E3E78E
:101A400006460024094DCCE70446094DC9E700BF0E
:101A500000800D40FECA07B0010001B0000001B0D7
:101A6000010007B03119001040780020020001B0D9
:101A7000030001B0001001B0002001B008B500F073
:101A800045FCA0F120035842584108BD07B5042188
:101A900001900DEB010000F057FC03B05DF804FB72
:101AA00038B5102383F31188174803680BB103F08E
:101AB000B1FA00234FF47A71144A134803F0A2FAE2
:101AC000002383F31188124C236813B12368013B70
:101AD0002360636813B16368013B63600D4D2B782D
:101AE00033B963687BB9022000F002FD32236360E2
:101AF0002B78032B07D163682BB9022000F0F8FC88
:101B00004FF47A73636038BDE07A0020A11A0010A8
:101B1000007C0020F87A0020084B187003280CD8AD
:101B2000DFE800F008050208022000F0DFBC022018
:101B300000F0DABC0022024B5A607047F87A0020AD
:101B4000007C002038B5324B324C334DA3612B68FA
:101B5000013302D06A68531C05D1304BA3612D4B71
:101B60002F4A9A6138BD2F4B9A4201D82E4BF5E788
:101B70002E4B9B6803F1805303F580339A4201D3C7
:101B80002B4BEBE7002000F057FC0220FFF7C4FFCF
:101B90002968284A284B914208BF1D46002383F339
:101BA0000A8883F30B88254A216991421ED123615B
:101BB000234BA36172B64FF0FF32224BC3F8802053
:101BC000C3F88420C3F88021C3F88421BFF34F8F6A
:101BD000BFF36F8F1C4B1021A361D5E9003281F355
:101BE00011889D4683F308881047B8E7174B236197
:101BF000174BA361BFF34F8F1649174BCA6802F406
:101C0000E0621343CB60BFF34F8F00BFFDE700BF1F
:101C1000010000A000800D4000000110040000A0A1
:101C20000B0000A0FFFF0010050000A00001002035
:101C3000070000A0D3DEFFFF8000011011CA07B02B
:101C4000080000A000E100E00A0000A0FECA07B002
:101C5000090000A000ED00E00400FA052DE9F04FB6
:101C6000B74B97B004902022FF2106A89E6803F08E
:101C700061F9B44B1A78BAB90122B34C1A702046F4
:101C800002F048F9102383F31188236813B120462A
:101C900003F0C0F900234FF47A71AC4AAA4803F06C
:101CA000B1F9002383F31188049B13B1A84B049A64
:101CB0001A604FF00008A74A454613784446032BA4
:101CC00018BF002347461CBF1370A14ACDF80880F7
:101CD00018BF5360049BCDF80C800193012000F0E5
:101CE00005FC019B23B19A4B1B68002B00F02A8254
:101CF000002000F00BFBB0F10009F2DB012000F046
:101D0000F3FBA9F121001628E8D801A353F820F02D
:101D10006D1D00108D1D0010251E0010DD1C001013
:101D2000DD1C0010DD1C0010791E0010B920001011
:101D3000711F0010072000102D20001053200010EC
:101D4000DD1C001065200010892000100321001008
:101D5000FB1D0010DD1C00104B210010791D001030
:101D6000FB1D0010DD1C0010072000100220FFF7F3
:101D700085FE002840F01782019B049A0221B8F1E9
:101D8000000F08BF13467448019345E04FF47A7082
:101D900000F0BCFAB0F10009EEDB0220FFF76EFEA6
:101DA0000028E9D009F1FF37052F00F2FE81DFE8B6
:101DB00007F003070A0D10360520FFF767FE14E051
:101DC0005F4B1868F9E75E4B5868F6E75C4B98681C
:101DD000F3E74FF01C09484600F030FB09F1040915
:101DE000FFF754FEB9F12C0FF5D10120029B00FA48
:101DF00007F71F43FBB20027029300F007FC4CB12A
:101E0000029B03F00B030B2B04D1544B544A5A6131
:101E1000002301930221534800F096FA5EE7484BF5
:101E2000D868CAE7002CA7D0029B03F00B030B2B4A
:101E3000A2D10220FFF722FE814600289CD0474B0A
:101E4000494A01205A6100F0F7FA0220FFF764FEC8
:101E500000F002FB04460546002800F0A88100259A
:101E60000120FFF759FE3B4BA0461D70384B2E4614
:101E70005D6003950195C0E7002C3FF47DAF029BA8
:101E800003F00B030B2B7FF477AF0220FFF744FE28
:101E9000322000F03BFAB0F10009FFF66DAF19F007
:101EA000030A7FF469AF264A09EB0603926893425E
:101EB0003FF662AFB9F5807F3FF75EAFDFF8ACB0B9
:101EC000D1450BDD4FF47A7000F020FA0028FFF6C0
:101ED00053AF0BF8010B0AF1010AF1E7C820FFF735
:101EE000CDFD824600283FF447AF4A461F4903987C
:101EF00000F0BCFB1F2E03904D4411D8C6F1200208
:101F00004A4528BF4A4606AB26F003001749184445
:101F1000059203F017F8FF21059A144803F00AF818
:101F200030461249C9F3870200F02CFB4FEAA90B97
:101F30000446002800F0428106EB8B065DE700BFF7
:101F400000010020FC7B0020E07A0020A11A001094
:101F5000007C0020F87A00207406001000800D40FC
:101F6000030000A16C060010010000A1FC7A002013
:101F70000220FFF783FD00283FF4FEAE00F0A2FA36
:101F800000283FF4F9AEA9464FF0FF3BDDF80CA066
:101F90008B4B9A684A450BD9504604220EA9CDF8BE
:101FA00038B000F063FB09F104098246844BF0E786
:101FB0004FF00009CB46824B9A684A451AD9B9F1CD
:101FC0001F0F12D8069A01320FD029F0030216AB68
:101FD0001A4452F8402C0E92584604220EA900F0E2
:101FE00045FB09F104098346E5E7484600F026FA77
:101FF0000E90F1E75046DA451EBF724B724A9A6165
:10200000FFF744FDF9E6002364210EA80E9300F0CB
:1020100091F900287FF4B0AE0220FFF72FFD0028D1
:102020003FF4AAAE0E9800F049FAE9E700236421D4
:102030000EA80E9300F07EF900287FF49DAE0220DA
:10204000FFF71CFD00283FF497AE0E9800F038FA19
:10205000D6E70220FFF712FD00283FF48DAE00F016
:1020600041FACDE70220FFF709FD00283FF484AED6
:102070000EA9142000F05CFA0590FFF707FD059902
:102080000EA800F061F9B8E60220FFF7F7FC00287F
:102090003FF472AE4D4B0DF1380C03F1100E624659
:1020A00018685968083303C273459446F7D1102065
:1020B000FFF7ECFC1021E3E7322000F027F9B0F144
:1020C0000009FFF659AE19F0030F7FF455AE3C4AF4
:1020D00009EB0703926893423FF64EAE0220FFF7EA
:1020E000CDFC00283FF448AE29F00309B9444F4520
:1020F0003FF483AE384600F0A1F9FFF7C7FC043780
:10210000F5E74FF47A70FFF7B9FC00283FF434AEDE
:1021100000F0D8F900284ED0069B01330BD00822DE
:10212000002006A900F02EFA002844D02022FF212A
:1021300006A802F0FFFE2648022100F005F9254816
:1021400002F0B0FE17B0BDE8F08F002C3FF414AEE3
:10215000029B03F00B030B2B7FF40EAE00236421D4
:102160000EA80E9300F0E6F8814600287FF404AE36
:102170000220FFF783FC824600283FF4FDAD0221D8
:10218000134800F0E1F841F2883002F08BFE0E981F
:1021900000F06AFA00F03AFA0A4B0F4A54465A61C4
:1021A000CDF804909AE5044627E60027E4E54C467E
:1021B000C84603900190022108482DE65446FAE7EC
:1021C0000001002000800D4000C0D0BA5806001069
:1021D0006C060010A0860100020000A1700600102D
:1021E000EFF303830C4A53610C4B59689161996872
:1021F000D1610B499162BFF34F8FBFF36F8FBFF374
:102200004F8FD968074A01F4E0610A43DA60BFF3EF
:102210004F8F00BFFDE700BF00800D4000ED00E0E4
:10222000444E48550400FA05024B034A1A6000F078
:102230000DBC00BF002002407F3BFFFF7047000045
:1022400008B54FF0E0230A4A0A49C3F8082D0A4AA4
:10225000C3F88011C3F88421C3F88012C3F8842224
:1022600000F038FD01F05EFFBDE8084002F032BE2C
:1022700000000010FEBFFFFFF9FF0F00F7B5164684
:1022800005460C4640F2E73000211B4F4FF47A72AE
:102290000023E6FB0701FDF751FF184E034696F9B0
:1022A0000020501C0BD11648294602680193176A7A
:1022B0002246B8478442019B03D1002310E0002A44
:1022C000F1D096F90020511C01D0012A0DD10D4802
:1022D00029460268166A2246B047844205D1012386
:1022E0000120094A137003B0F0BD4FF4FA7002F0F8
:1022F000D9FD0020F7E700BF40420F001001002089
:10230000AC7F0020387C0020347C0020002307B5FF
:10231000024601210DF107008DF80730FFF7AEFFEF
:1023200020B19DF8070003B05DF804FB4FF0FF30CB
:10233000F9E700000A4608B50421FFF79FFF80F087
:102340000100C0B2404208BD2DE9F341294D2A4C9D
:102350002B780A4654F82360014633683046DF691B
:10236000264BB8472B78264D54F82330AB4213D177
:10237000502410274FF0010805F14C0687F311880F
:10238000D5F894341A681178042902D1297C0229DD
:1023900005D0002383F3118802B0BDE8F0811B79DA
:1023A000128908FA03F3134219D1304601A900F04B
:1023B000A5FD50B9304600F057FE0028E9D0304660
:1023C00001A900F09BFD0028E3D0D5F894C4024693
:1023D000019B9CF80410DCF8000001F02DFA0023AA
:1023E00083F311887D20013C02F05CFD14F0FF04B2
:1023F000C4D1D1E7347C002078060010A08601000B
:10240000AC7F002070B501F05BFF0024084E094D41
:10241000308028683388834208D901F04DFF2B684B
:1024200004440133B4F5803F2B60F2D370BD00BF8C
:10243000367C0020087C002001F078BF00F180503D
:1024400000F580300068704700F18050920000F580
:10245000803001F04BBF00002DE9F047144D4FF4E0
:102460008036286801F028FF0446B6FBF0F628689D
:1024700006FB04F94443DFF83CA0DFF83C80BAF8DF
:10248000003087199F4211D801F01EFF054650B950
:102490004FF48032D8214046230C00F0A3F910B14C
:1024A0002846BDE8F08738464C44E8E70125F7E7C1
:1024B000087C0020367C002014010020002070479A
:1024C00000207047064991F8243033B100230822D8
:1024D000086A81F82430FFF7B7BF0120704700BFBA
:1024E0000C7C0020002070477047000070470000FF
:1024F000704700002DE9F041044640F2E7364FF006
:1025000000080A4F84B1412C2546304628BF41259A
:1025100041464FF47A720023E5FB0701FDF70EFEFA
:1025200002F0C0FC641BEDE7BDE8F08140420F0003
:102530000246092A28BF092208B50846024902F0C6
:1025400001FD104608BD00BF8006001010B501381F
:1025500010F9013F3BB191F900409C4203D11AB1FF
:102560000131013AF4E71AB191F90020981A10BD2F
:102570001046FCE703460246D01A12F9011B002957
:10258000FAD170472DE9F8431F4D144695F82420E1
:102590000746884652BBDFF870909CB395F824300C
:1025A0002BB92022FF2148462F6202F0C3FC95F888
:1025B00024004146C0F10802A24228BF224605EB92
:1025C0008000D6B2920002F0BDFC95F82430A41B26
:1025D0001E44F6B2082E17449044E4B285F82460F5
:1025E000DBD1FFF76FFF0028D7D108E02B6A03EBA0
:1025F00082038342CFD0FFF765FF0028CBD10020B4
:10260000BDE8F8830120FBE70C7C0020024B1A7820
:10261000024B1A70704700BF347C0020100100206C
:1026200070B54FF480350C4E0C480D4C00F0F0FDA9
:1026300031460A4800F018FE04F540534FF47A7012
:10264000DD64FFF757FF04F500540649306801F0D8
:102650009DF8E56470BD00BFCC070010AC7F002082
:1026600000001150D40700107047000030B5094D2C
:102670000A4491420DD011F8013B5840082340F321
:102680000004013B2C4013F0FF0384EA5000F6D114
:10269000EFE730BD2083B8ED08B5034800F00CFD2E
:1026A000BDE8084000F0CCB9140100200048704794
:1026B0008C06001010B5044618462379052B09D066
:1026C000032301F18051237102F03CFC022300201E
:1026D000237110BD0120FCE7072070470379052B0B
:1026E00003D1012011B1086070470020704700003D
:1026F00010B503790446052B11D000F0E7FC00F17A
:10270000805200F110231168013106D104329A423F
:10271000F9D100200223237110BD0520FAE7012022
:10272000FAE7000070470000704700002DE9F04311
:10273000984603790546052B0E461446C1B031D0A4
:1027400004230371FFF7EEFF3CB9FFF7EDFF02230F
:1027500020462B7141B0BDE8F0835FFA86F9C9F5D8
:102760008077A74228BF27464FF48072FF21684632
:1027700002F0E0FB41463A460DEB090002F0E2FBB5
:1027800002F060FC814626F0FF014FF480736A4638
:10279000284600F057F9484602F0DCFB3E44B844B6
:1027A000E41BD1E70120D5E770B503790446052B7A
:1027B0000E4614D005230371FFF7B4FF02F042FC6C
:1027C000054620213203204600F03EF9284602F05B
:1027D000C1FBFFF7A9FF02230020237170BD012078
:1027E000FCE7000037B5044600790191052817D0B1
:1027F00005205A4320710092FFF794FF02F022FC5B
:10280000DDE900210546204600F01EF9284602F0C9
:10281000A1FBFFF789FF02230020237103B030BD25
:102820000120FBE7C268806A9300510810B501F4EB
:102830000071846B03F480630B43D100234301F4E4
:10284000807152000B4302F080021343836310BD7A
:10285000C268510741BF816A8B6B43F010038B63E1
:10286000930541BF826A936B43F0400393637047C3
:1028700010B5064C204600F015FE4FF08062044B68
:10288000A362A3F59C231A6010BD00BF387C002012
:1028900000000740836A10B5DC6B04F4F0645C64EC
:1028A000FFF7C0FF6000E30803F0200300F480603E
:1028B0001843A30A640840EA032004F040042043BC
:1028C00010BD000038B50024836A9D69ED0603D56C
:1028D000FFF7BEFF204638BD9442FBD01B680B5566
:1028E0000134F1E730B5836A044600209D69AD06E6
:1028F00007D5E268120703D59A6B42F020029A636B
:1029000030BD9042FCD00D5C01301D60EEE7000050
:10291000836A10B51C689B69E4B2DB0601D5FFF73A
:1029200097FF204610BD0000836A19609A699106DE
:1029300006D5C268120742BF9A6B42F020029A6322
:1029400070470000002070472DE9F041866A044678
:10295000376CB56B002F71D017F4F06F17D0402390
:1029600025F4F0657364102383F3118802F042FBB1
:1029700004F11800012102F09DFB012104F11C006B
:1029800002F098FB02F0FEFA002383F31188790627
:1029900025D540237364A36A25F04005996911F099
:1029A00010080DD1102383F3118802F023FB414658
:1029B00004F1180002F07EFB02F0E4FA88F31188BB
:1029C000102383F3118802F015FB002104F11C0091
:1029D00002F070FB02F0D6FA002383F31188FA06A6
:1029E00012D5402325F010057364102383F311885A
:1029F00002F000FB002104F1180002F05BFB02F082
:102A0000C1FA002383F31188BB0610D525F02005F9
:102A1000102383F3118802F0EDFA002104F1200065
:102A200002F048FB02F0AEFA002383F31188236919
:102A3000B5631BB12046BDE8F0411847BDE8F08101
:102A40007047000002F01EBB02F00CBB37B54B4BC9
:102A50004B4A4C499A1A0A444B498B42C0F0888031
:102A60004FF40002494B1A60494A93681902FCD599
:102A700006220125474B484CDA619D610023C4F8CA
:102A8000843000F0EFF8454BDD63626CD207FCD573
:102A90000322414C1A63A36BDB07FCD5404AD36881
:102AA00023F4FF6323F0070343F4007343F00303AD
:102AB000D360BFF34F8FBFF36F8F4FF080531B680E
:102AC000BFF34F8FBFF36F8F02230121354A364882
:102AD0000093052300F072F80523344A0093012186
:102AE000334800F06BF84FF480336363236B314A53
:102AF00083F0020303F003031363274B996B4D0725
:102B0000FCD501202549C863596CCC07FCD5DB6B8B
:102B1000294903F0E003D3630123CB631E4B586CB8
:102B20008007FCD5186E4FF4803400F0E00010668A
:102B30004FF400605C660866DD6E05F0E005D56662
:102B40001C67C8669D6C05F0E0059564DC64002296
:102B500088640C21012001FB02F3013203F1804360
:102B600003F58413062A59601860F4D103B030BD10
:102B700052F8040B43F8040B6FE700BF90010020EC
:102B800000000020FC08001030100020003002403F
:102B90000000024000801040000001400030014071
:102BA00000000D40002F685900000540008C86474A
:102BB000008005400010014000200140F8B50446A7
:102BC0002348B0FBF1F0B2FBF0F20698000340EAB4
:102BD00003452368002B0EDA236803F03F03994274
:102BE00009D1A368C3F30B039A4204D1E36803F449
:102BF000EE239D4222D0174B174F9C421748A3F556
:102C000040331CD14FF480463E600660986846040D
:102C1000FCD5212304F5405621602046A2604FF0E8
:102C20000041736042F21072002300F061FA10B1AB
:102C30000B4800F059FA0823E5607360F8BD4FF4C3
:102C400000463E60066098680004FCD5E1E700BFDE
:102C5000001BB70000000540002002400030024089
:102C6000A80600104FF42A6208B50B4B4FF0004144
:102C70001A602F22DA60094A03F500531A600848E7
:102C80000023084A00F034FA20B1BDE808400648A5
:102C900000F02ABA08BD00BF0080044000B0FA006E
:102CA00004800440A0860100BC0600104FF0E02321
:102CB00000224FF0FF315868930003F16043013266
:102CC00003F561439042C3F88010C3F88011F3D23A
:102CD0007047000008B501F093FF01F0A7FB00F07A
:102CE000E9F900F0DDFB00F041FD00F08FFA00F0A3
:102CF000BBFFFFF7A3FABDE8084000F0D9BC000015
:102D00002DE9F0411E46154604460F46DDF81880B1
:102D100001F04CF800220436079B06FB08512363A0
:102D2000089BC4E90455C4E90616C4E90885C4E94A
:102D30000A222772E2606363BDE8F0810022416AE3
:102D4000C0E90A22C0E90411C2606FF0010101F07C
:102D50004DB80000D0E90432934201D1C2680AB9EB
:102D6000181D70470020704703691960C268002170
:102D70000132C260C269134482690361934224BF75
:102D8000436A036101F026B838B504460D46E3688E
:102D90003BB162690020131D1268A3621344E36211
:102DA00007E0237A33B92946204601F003F80028CA
:102DB000EDDA38BD6FF00100FBE70000C368C269BF
:102DC000013BC3604369134482694361934224BF5A
:102DD000436A436100238362036B03B11847704762
:102DE00037B50446019102F0EDF8A36A01994BB999
:102DF0002046FFF7C9FF054620B102F03BF92846FF
:102E000003B030BDA36AE26A13F8015B9342A36288
:102E1000F3D32046FFF7D2FFEFE700002DE9F84398
:102E200004460D4690469946002602F0CBF8A36A68
:102E30004BB949462046FFF7A7FF20B102F01AF927
:102E40003046BDE8F883D4E90A177A1AA8EB0607DA
:102E5000974228BF1746402F1BD92B4601F140024D
:102E600051F8040B914243F8040BF9D1A36A4035A1
:102E70004033A3624036D4E90A239A4202D3204663
:102E8000FFF79CFF02F0F6F84645D9D202F09AF817
:102E9000CDE728463A4602F055F8A36A3D443B4444
:102EA000A3623E44E7E700002DE9F0411E460446D8
:102EB0001546069F884600F079FF0023043606FB7E
:102EC0000752C4E90A33079BC4E904552363089BEE
:102ED000C4E90626C4E9087584F80880E7606363DE
:102EE000BDE8F081026A6FF00101C260426AC0E988
:102EF00004220022C0E90A2200F078BFD0E90423AE
:102F00009A4201D1C26822B9184650F8043B0B60BE
:102F1000704700231846FAE7C368C2690133C360EB
:102F200043690021134482694361934224BF436A89
:102F3000436100F04FBF000038B504460D46E3681A
:102F40003BB1236900201A1DA262E2691344E362C7
:102F500007E0237A33B92946204600F02BFF0028EA
:102F6000EDDA38BD6FF00100FBE70000036919607E
:102F7000C268013AC260C269134482690361934224
:102F800024BF436A036100238362036B03B11847C4
:102F90007047000073B504460E46019202F012F825
:102FA000A36A01994BB92046FFF7C6FF054620B139
:102FB00002F060F8284602B070BDA36A1E70A36AD2
:102FC000E26A01339342A36204D3E16920460439E3
:102FD000FFF7CCFF02F04EF80025EBE72DE9F843B0
:102FE00004460D4690469946002601F0EBFFA36A81
:102FF0004BB949462046FFF79FFF20B102F03AF84F
:103000003046BDE8F883D4E90A073A1AA8EB060768
:10301000974228BF1746402F1BD905F1400355F8AA
:10302000042B9D4240F8042BF9D1A36A403640336B
:10303000A362D4E90A239A4204D3E1692046043901
:10304000FFF794FF02F016F84645D9D201F0BAFF17
:10305000CDE729463A4601F075FFA36A3D443B445B
:10306000A3623E44E5E70000D0E904239A4217D169
:10307000C3689BB1836A8BB1043B9B1A0ED013606B
:10308000C368013BC360C3691A44836902619A4201
:1030900024BF436A036100238362012318467047FB
:1030A0000023FBE70123C360002070470023C360B7
:1030B00018467047FFF7F0BA034B03600123037112
:1030C0000023C0E902337047D0060010036810B532
:1030D0005B680C469847C36813B153F8340010BDC1
:1030E00000696043FBE7000008B501F00BFFFEE755
:1030F00070B5074DAE6A046803B11C600C4205D17F
:10310000AC6AA41BA242F6D8012070BD0020FCE7E7
:1031100000000B40026843681143016003B1184787
:103120007047000013B5446BD4F894341A681178D2
:10313000042915D1217C022912D119790123128980
:103140008B4013420CD101A904F14C00FFF7D6FECD
:10315000D4F894440246019B2179206800F06CFB6E
:1031600002B010BD1430FFF759BE00004FF0FF331E
:103170001430FFF753BE00004C30FFF72FBF0000A4
:103180004FF0FF334C30FFF729BF00001430FFF73A
:1031900027BE00004FF0FF311430FFF721BE0000C2
:1031A0004C30FFF7F7BE00004FF0FF324C30FFF716
:1031B000F1BE000010B5D0F8943404461A681178B6
:1031C000042917D1017C022914D15979012352898C
:1031D0008B4013420ED11430FFF7BCFD024648B1BC
:1031E000D4F894444FF4807361792068BDE81040AE
:1031F00000F010BB10BD0000406BFFF7DBBF00000C
:1032000000290CBF6FF013000020704770470000CA
:103210007FB5124B0125036000230226044643605C
:10322000C0E902330E4B057429460290019300F168
:1032300084024FF4807300961430FFF761FD094B50
:103240002946CDE9006302944FF4807304F523729C
:1032500004F14C00FFF728FE04B070BDF806001022
:10326000F93100102531001038B504460D46102301
:1032700083F3118801F0DEFE2B682A7903EB8202CA
:1032800094646A79213243F82240AA7912B103EB9F
:1032900082039C640223C4F89454237401F002FF57
:1032A000002080F3118838BD38B5037F044613B180
:1032B00090F85430ABB90125201D0221FFF72AFFF9
:1032C00004F114006FF00101257700F08FFD84F800
:1032D000545004F14C006FF00101BDE8384000F09B
:1032E00085BD38BD10B5012104460430FFF712FF3B
:1032F0000023237784F8543010BD000038B504460D
:1033000000251430FFF71AFD04F14C002577FFF774
:10331000E9FD201D84F854500121FFF7FBFE2046F3
:10332000BDE83840FFF746BF90F8D43003F06003A3
:10333000202B06D190F8D5200023212A03D81F2A5C
:1033400006D800207047222AFBD1C0E9323305E0BD
:10335000044AC0F8C8200722C0F8CC20C0F8D030FA
:10336000012070474C01002037B5D0F89434044652
:103370001A68117804291AD1017C022917D1197908
:10338000012312898B40134211D100F14C052846CC
:10339000FFF76AFE58B101A92846FFF7AFFDD4F840
:1033A00094440246019B2179206800F045FA03B05D
:1033B00030BD00002DE9F34104460D4639B300EB62
:1033C00081039E6C1EB3102383F3118804EB8507E1
:1033D00001F010FEFB6806F14C085B691B6833B115
:1033E0004046FFF799FD0821301DFFF793FE404648
:1033F00001A9FFF783FD024660B1019B29462046E3
:1034000000F01AFA01F0BEFD002383F3118802B028
:10341000BDE8F081FA6853691B6843B1128AB3FBB7
:10342000F2F102FB113313B904F1D402E6E71021E3
:10343000301DFFF76FFEE5E738B519B3213150F8BD
:103440002140FCB1102383F3118801F0D3FDD4F89F
:1034500094241368527903EB8203DB689B695D68EF
:1034600045B104216018FFF755FE294604F1140008
:10347000FFF77AFC2046FFF79DFE01F083FD002355
:1034800083F3118838BD00007047000019B101298D
:1034900004D0FFF757BA6FF0130070470020704751
:1034A000FFF7E6B9064B0360012303710023C0E96F
:1034B0000233C0E90433C0E90633C0E9083370477A
:1034C0002007001007B5019001F014FD0198FFF7E7
:1034D000E1F9019001F0A6FD019803B05DF804FB4D
:1034E0001FB5CDE90210019201F004FDDDE90121D3
:1034F0000398FFF7E7F9019001F094FD019805B0FA
:103500005DF804FB1FB5CDE90210019201F0F2FC59
:10351000DDE901210398FFF7E5F9019001F082FD53
:10352000019805B05DF804FBF8B505460E4601F0BC
:10353000E1FCAB6A1B6C13F4F06F10D105F11807B6
:10354000AB6A9C6914F0100406D03146384601F08D
:10355000B1FC04460028F3D001F064FD02E001F064
:1035600061FD01242046F8BD2DE9F04105460E46D7
:10357000174698460024BC4212D241462846FFF71F
:10358000D3FF01280AD12846FFF79CFF31463A1B9A
:103590002846FFF7A5FF04440644ECE70028F5D0D1
:1035A0002046BDE8F0810000FFF7DEBF4FF0FF339B
:1035B000FFF7DABF38B504460D4629462046FFF727
:1035C000B3FF012803D12046FFF77CFFF5E720B9C0
:1035D0002046BDE83840FFF79BB938BD10B504461A
:1035E0004FF0FF312046FFF79FFF012803D120460F
:1035F000FFF768FFF4E720B92046BDE81040FFF769
:1036000087B910BDF8B505460E4601F073FC05F10B
:103610002007AB6A9C6914F0200406D03146384676
:1036200001F048FC04460028F3D001F0FBFC2046E2
:10363000F8BD00002DE9F04107460D4616469846B4
:103640000024B44202D32046BDE8F081414638460A
:10365000FFF7D8FF0028F6D12946321B3846FFF77E
:1036600051FF04440544ECE7FFF7E4BF4FF0FF339C
:10367000FFF7E0BF70B50E4611460546FFF7C2FFE3
:10368000044618B931462846FFF74EF9204670BD6A
:1036900070B50E464FF0FF310546FFF7B3FF044605
:1036A00018B931462846FFF73FF9204670BD0000A3
:1036B0000022034BC3E90022C3E9022200F016BF37
:1036C000647C002000F022BF0122064B06491861ED
:1036D000DA630A649A6A801A0028DEBF9A6A0232A4
:1036E0001A61704700000B4000200B400122014B83
:1036F0001A64704700300B40014B1861704700BFDF
:1037000000000B4010B50446002101F01FFA002113
:10371000204601F007FA63681B6813B106212046B2
:103720009847A36823F00113A3600023C4F8CC30AA
:10373000062384F8C43010BD10B5044690F8D63086
:1037400080F8DE3001F06EF863681B6813B1012168
:10375000204698470323237010BD000008B501F0F0
:1037600011FC002383F3118808BD000001F04EB85E
:10377000012310B578220446002100F84C3B01F0EB
:10378000D9FB0023C4E9013310BD000038B504465D
:103790000D46102383F3118801F04CFC40220021D8
:1037A000656004F10C0001F0C5FB204601F0FCF857
:1037B0000223237001F076FC002080F3118838BDCD
:1037C00070B500EB8103054650690E461446DA6079
:1037D00018B11C22002101F0ADFBA06918B118221C
:1037E000002101F0A7FB31462846BDE8704001F0FA
:1037F00023B8000010B5044683683C2203F001138F
:1038000083600021103001F095FB2046BDE8104098
:1038100001F014B9F0B4012500EB8104E468478994
:10382000A4698D403D43458123600023A26063600D
:10383000F0BC01F05BB90000F0B4012500EB81049D
:10384000E468078964698D403D4305812360002356
:10385000A2606360F0BC01F05DB9000070B50223A6
:1038600000250446037040222946C0F8DC50C0F809
:10387000CC5085600C3001F05DFB204684F8C450CC
:1038800001F06EF863681B6823B129462046BDE845
:103890007040184770BD0000037810B5052B044632
:1038A0000AD080F8E0300523037043681B680BB131
:1038B000042198470023A36010BD0000017805296A
:1038C00006D190F8E020436802701B6803B11847E6
:1038D0007047000070B590F8C430044643B1836867
:1038E00023F0011383600023C0F8CC3080F8C4308B
:1038F0000021204604F1D40201F0E2F863689B68DD
:103900004BB994F8D43013F0600529D02046BDE8B7
:103910007040FFF7F7BE204698470028F1D0B4F872
:10392000DA30D4F8CC209A4288BFC4F8CC3094F96D
:10393000D430D4F8CC50002B80F2F680002D00F06B
:10394000E780092384F8C43001F0E4FAD4E9322393
:1039500000212046FFF770FFBDE87040FFF7FEBE74
:1039600094F8D52003F07F0343EA022340F20232A9
:10397000934200F0BA8024D8B3F5807F4FD010D89E
:10398000012B44D0022B00F08880002BBED104F123
:10399000DC02C4F8C8200222C4F8CC20C4F8D0301D
:1039A000BDE7B3F5817F00F08D80B3F5407FADD1E9
:1039B00094F8D630012BA9D1B4F8DC3043F00203DF
:1039C00036E0B3F5006F3ED019D8B3F5A06F36D00E
:1039D000A3F5C063012B99D8636820465E6894F80C
:1039E000D620B4F8D83094F8D710B04700288DD03E
:1039F0004368C4F8C8300368C4F8CC301CE0B3F5A1
:103A0000106F26D040F6024293427FF47FAF4F4BB7
:103A1000C4F8C8300223C4F8CC300023BEE794F8C1
:103A2000D630012B7FF472AFB4F8DC3023F0020300
:103A3000C4E93255A4F8DC30C4F8D0506FE7C4E9CB
:103A40003255434BAAE704F1DF03C4F8C830012321
:103A5000D2E72378042B0FD101F05CFA2046FFF760
:103A6000C9FEFFF77BFE0321636884F8DF502170F5
:103A70001B680BB12046984794F8D6304BB184F8B8
:103A8000DF300423237063681B6813B102212046D2
:103A900098470023C4E9323380E794F8D8302046B1
:103AA0001D0603F00F010AD500F0F6FF012804D02F
:103AB00002287FF42BAF274BAAE7274BA8E700F09B
:103AC000D1FFF3E794F8D630002B7FF41FAF94F8C2
:103AD000D83013F00F01DCD01A06204602D501F0D1
:103AE0005DF8D6E701F046F8D3E794F8D630002B1E
:103AF0007FF40CAF94F8D83013F00F01C9D01B0637
:103B0000204602D501F022F8C3E701F00BF8C0E728
:103B1000142384F8C43001F0FDF92B462A46002115
:103B20002046FFF777FE17E73DB1152384F8C43030
:103B300001F0F0F9D4E93223F1E70B2384F8C43023
:103B400001F0E8F92B462A4602E700BF50070010B3
:103B500039370010480700104C07001038B590F8AE
:103B6000C43004460B2B09D80B2B28D8DFE803F010
:103B70000827272727270827270D2837152B1ED189
:103B80002046BDE83840FFF7BDBDD0F8CC30B0F8D6
:103B9000DA20934214D2C268158AB3FBF5F205FB12
:103BA00012356DB901F0B6F92B462A462946204652
:103BB000FFF742FEFFF7D2FD0A2384F8C43038BD78
:103BC000142384F8C43001F0A5F9002320461A46D6
:103BD0001946FFF71FFEBDE83840FFF7BFBDD0F81C
:103BE000D03003B19847A36823F00113A3600023EA
:103BF000C4F8CC30E1E7000010B590F8C4300446BA
:103C0000142B1ED00CD8062B05D001D81BB110BD2B
:103C10000A3B012BFBD82046BDE81040FFF772BDE0
:103C2000152BF4D10B2380F8C43001F073F9002375
:103C300020461A461946FFF7FFFDBDE81040FFF782
:103C40008DBDC3689B695B68002BE0D1D0F8D03094
:103C500003B19847A36823F00113A3600023C4F8BD
:103C6000CC3084F8C430D2E700F0ACBF4B6810B55C
:103C7000C0F884308B680A4AC0F88830CB680446A4
:103C800083600223A0F88C308B699830002B08BF2A
:103C9000134640F8183C00F0B9F8204610BD00BFAC
:103CA000787C002010B50C46FFF7E0FFD0F88820A4
:103CB0000E4BA2F16801C1601021016121694161CF
:103CC000616981616FF012014163094942F8501C3A
:103CD0004FF0807142F84C1CD0F8841081630421AD
:103CE000C163DB6B42F8083C10BD00BF00EF00E091
:103CF0000D07002008B5FFF7D5FFBDE8084001F02B
:103D000051B90000F0B505461E461A4B89B00E9F0A
:103D1000CDE901350844184BCDE9030201A9C038AB
:103D20000793CDE90567FFF7A1FFA0F16803C36022
:103D30001023C0E904366FF0120343630F4B0446AF
:103D400040F8503C4FF0807340F84C3C0423C36370
:103D50000B4B87618563DB6B40F8083C01F0E2F8B0
:103D60002046002101F026F901F074F9204609B03F
:103D7000F0BD00BF6C070010787C00200D0700200C
:103D800000EF00E0034BDB68C3F890000F2001F068
:103D900081B900BF787C002007B5019001F0C2F81E
:103DA000019803B05DF804EBFFF7ECBFC0E9000039
:103DB00070470000064BDB6839B1426818605A60F2
:103DC00013604360042001F05DB84FF0FF3070478E
:103DD000787C00200368984207D01A68026050601F
:103DE0001846C3F8901001F0DDB8704738B50446A6
:103DF0000D462068844200D138BD036823605C60B2
:103E0000C0F8905001F0CEF8F3E7000000234FF027
:103E1000FF32C0E90233C0E9002300220023C0E9D9
:103E2000042370472DE9F041154D0E462F6AE961D4
:103E3000BA42826038BF3A4605F1100343602B69ED
:103E400014460360586028618818FFF73DFC01F0B4
:103E500021F8831BA342804606D37C1C3019FFF750
:103E60004BFC27464646F2E72B6A9F4205D92F6254
:103E70000120BDE8F04100F04BBFBDE8F08100BF7C
:103E8000787C0020F8B50E4F04463D6AA94238BF41
:103E900029460E46A019FFF72FFC00F0FBFF041B7C
:103EA000A64203D801352E460446F3E73B6A9D42FD
:103EB00005D93D620120BDE8F84000F029BFF8BDFA
:103EC000787C0020F8B506460D4600F0E3FF0F4A67
:103ED000134653F8107F9F4206D12A4601463046CA
:103EE000BDE8F840FFF79EBFD169BB68441A2C19A2
:103EF00028BF2C46A34202D92946FFF7C3FF22461A
:103F00003146BDE8F840024800F0DCBF787C002074
:103F1000887C002000230360704700000020704769
:103F2000FEE70000704700004FF0FF3070470000D0
:103F300002290CD0032904D00129074818BF00200A
:103F40007047032A05D8054800EBC20070470448B3
:103F500070470020704700BF300800105C0100204F
:103F6000E407001070B59AB00546084601A914464A
:103F700000F012F901A8FEF7FDFA0022431C5B00D5
:103F8000C5E9003423700323C6B21046637001AB49
:103F90000234D1B28E4204F1020401D81AB070BDCD
:103FA00013F8011B04F8010C04F8021C0132F0E7BD
:103FB00008B5102383F3118801F01CF80448FFF7BB
:103FC000D3F900F0DFFF002383F3118808BD00BFA1
:103FD000AC7F002090F8D43003F01F02012A0AD1F0
:103FE00090F8D5200B2A06D10023C0E93233C0F85F
:103FF000D0300120704703F06003202B15D190F8DA
:10400000D530222B04D1B0F8D620094B1A80EBE72B
:10401000B0F8D8204AB9203B012B06D8054BC0F890
:10402000C8300723C0E93332E3E7FFF77DB900BFAB
:10403000448400205301002008B503680133036065
:1040400000F028FF014B186008BD00BF9C840020D1
:1040500010B5044606293ED8DFE801F01F3D0425CF
:104060002B3E4A002548FFF7E7FF102383F3118812
:1040700000F0C0FF01212046214AFFF7A1FB2046A6
:104080000221204AFFF79CFB1F48FFF737F900F099
:1040900079FF002383F311881DE000221B4B1C488D
:1040A0001A80FFF7C9FF0022184B1A481A80FFF741
:1040B000C3FF0024154B18481C80FFF7BDFF1023D9
:1040C00083F3118800F096FF0F48FFF7EDF800F03A
:1040D00059FF84F3118810BD1048FFF7ADFF10237E
:1040E00083F3118800F086FF0748FFF7FBF8CEE75F
:1040F0000B48BDE81040FFF79FBF00BF9884002029
:1041000094070010B0070010AC7F0020448400200A
:10411000A0840020AC840020A8840020B08400206B
:10412000A484002038B50C4D0C4C2A4604F108003C
:104130000B49FFF717FF05F1CA0204F11000094906
:10414000FFF710FF05F5CA7204F118000649BDE833
:104150003840FFF707BF00BFB48400205C01002097
:10416000740700107E0700108907001070B5044620
:1041700008460D46FEF7FEF9C6B220460378013424
:104180000BB9184670BD32462946FEF7DFF9002804
:10419000F3D10120F6E700002DE9F04F87B0054686
:1041A0000C46FEF7E7F93B49C6B22846FFF7DEFFAB
:1041B00008B10136F6B228463749FFF7D7FF08B1F4
:1041C0001036F6B2632E11D86F46DFF8CCB0334EFE
:1041D000DFF8CC80DFF8CC9095F800A0BAF1000FA2
:1041E0000BD184F800A007B0BDE8F08F2946204627
:1041F00007B0BDE8F04F00F03DBEBAF1250F44D145
:10420000072228462349FEF7A1F948B9D9F800301A
:1042100007352360D9F80430083444F8043CDBE760
:10422000082259462846FEF791F970BB3368ADF86D
:104230000C307368ADF80E30B368ADF81030F36829
:10424000ADF812303369ADF814307369ADF816303B
:1042500003AB93E8070087E807003946A31C04F185
:104260001A0011F8012B02334FEA121C02F00F0260
:104270001CF808C012F8082003F804CC03F8032C3B
:104280009842EED118340835A6E7013504F801ABA1
:10429000A2E700BF5008001089070010000013407B
:1042A0006108001058080010B0F5806F3ABF00F5A3
:1042B00080300003002070474FF4805070470000AA
:1042C0004FF4806070470000B0F5806F08B50BD2E6
:1042D000FFF7EAFF00F580530268013204D1043091
:1042E0008342F9D1012008BD0020FCE7B0F1805FD6
:1042F00010B517D38318B3F1825F13D8002393420C
:1043000001D1012010BDCC5CFF2C01D10133F6E7B7
:104310000B4600F170410448FEF708FAB0FA80F04D
:104320004009EFE70020EDE714010020704700008E
:104330007047000010B50244084C0439D2B29042D4
:1043400000D110BD07288FBF0023831C04EB83031B
:104350005B68013041F8043FC0B2F0E700800D40D7
:1043600030B50244094CD2B2904200D130BD07288A
:104370009EBF831C0D6804EB830300F1010001F173
:10438000040198BF5D60C0B2EEE700BF00800D4041
:1043900007B50122002001A9FFF7CCFF019803B067
:1043A0005DF804FB13B50446FFF7F2FFA04205D009
:1043B0000122002001A90194FFF7D2FF02B010BD35
:1043C0007047000070470000FEE7000070470000E3
:1043D000FEE7000070B50625134CD4E90102014642
:1043E0002368043B8A4219D8D31C1B1AC11E23F030
:1043F00003038A4238BF00231844E368C11EDA1C55
:10440000121A22F00302994288BF0022002100F014
:1044100091FD013D04F11004DFD170BD53F8046F2C
:1044200041F8046BDEE700BF7408001040234FF42E
:104430000071084A1360116002F580521360064B48
:1044400099684906FCD54FF4007111609A6892058D
:10445000FCD57047002002400000024008B500F083
:1044600099FD0122094BDA63102383F3118800F0D0
:10447000C1FD00F027FE00F085FD002383F31188C5
:104480004FF08052024B5A6008BD00BF00000B4045
:1044900000ED00E008B500F07DFD0422054BDA6375
:1044A000054B9B680BB1022098474FF08052034B9D
:1044B0005A6008BD00000B40647C002000ED00E065
:1044C00008B500F067FD0822054BDA63054BDB6891
:1044D0000BB1032098474FF08052034B5A6008BD40
:1044E00000000B40647C002000ED00E00622064B3B
:1044F000DA6200225A601A601A615A619A61DA61BE
:104500001A640F22DA63704700000B40022100207A
:1045100000F028BD431E48BF00F17E0323F07F005A
:10452000803080B2B0F5C07F0BD0B0F5207F0BD0CB
:10453000B0F5407F08D0B0F5806F28BF4FF48060A1
:1045400070474FF4007070474FF480607047000070
:10455000F0B571BB1C4BDA6C00EB8100C66822F031
:10456000A042B46942F00052A07B2568002880F088
:104570000100A073708A14BF4FF400570027A842AF
:1045800028BF2846646840F48063C3F30E032044C8
:10459000854243EA07030D4898BF43F4804379B945
:1045A000094CE264103100EBC1014B60BFF34F8F47
:1045B000F0BDCB0003F1A04303F580135A68CBE7AD
:1045C00000EBC1046260EDE70000115000001050E4
:1045D0002DE9F04100293AD1244BDA6C00EB81003F
:1045E000C4686369208ADD681E68D3F814E0771B0D
:1045F000B84228BF38460544AE4294BF4FF48046C7
:104600000026DD601D7CD3F80880002D85F00105B3
:104610001D7414BF4FF400570027002584B2A84230
:1046200019D19D682844986044F4044333431F43E0
:1046300022F0A04343F000530D4AA1B90B4CE364B0
:10464000103142F83170BFF34F8FBDE8F081084B55
:1046500053F83120C2E718F805C05FFA8CFC0EF859
:1046600005C00135DBE742F83130E9E700001150C1
:10467000000010502DE9F84F00F08CFC5E4BD3F891
:104680009850E90647D4EA0406D54FF400225B4B64
:104690005B481A65FFF7E2F8E8030DD54FF40032E6
:1046A000564B57481A650122C36899698A7359693C
:1046B0000A745B6800219847690405D510224F4BA6
:1046C0004F481A65FFF7E8F82A0406D54FF4006250
:1046D0004A4B4B481A65FFF7F1F8AB0315D5484C28
:1046E0006368DB6823B94FF40032444BC3F8902071
:1046F0002378052B02D14248FFF7E0F86368DB68B6
:104700000BB13F4898473C4B9B6C4FF080523D4B60
:104710005A60BDE8F88F00260127D3F85880384C3E
:10472000F1B2B8F1000FAED0202EACD018EA070FCE
:1047300017D0324B490801F1020C9F6504EB8C0342
:10474000D3F804E0F3071DD4DEF81420D3685360D7
:1047500012889BB29A4207D02046FFF739FF28EA19
:1047600007087F000136DBE7012303FA01F2238902
:1047700023EA02032381DEF80830002BEFD0204625
:104780009847ECE7204AC80010580022DEF818309D
:10479000C0F30900D3F808A0D3F810B090421ED19E
:1047A0009A6802449A605A6802445A601A68121A57
:1047B0001A609A89013A92B29A811AB1BEF81230FF
:1047C000834214D9012303FA01F2638904EB8C0CB0
:1047D00023EA02036381DCF80430DB68CDE71BF8D1
:1047E00002905FFA89F90AF802900132D6E7204672
:1047F000FFF7AEFEB3E700BF0000115000301150CC
:104800005887002000ED00E08400105010B5044CE3
:104810002046FEF7ADFF0023A4F8E23010BD00BF34
:104820005887002090F8DE30024A03F07F031360BF
:10483000704700BF000011502DE9F84300EB8103E1
:10484000DF680646D7E9059481B94023414AA9F8B3
:104850001830C9F8142089F8101022614FF0005266
:10486000A3823D4BA173DA64BDE8F8833D68B9F1DA
:10487000000F32D000234FEAC10808F1A04808F524
:104880008018012DC8F8803089F8103059D1388A45
:10489000FFF740FEB0F5007F4FD0B0F5806F4ED0EF
:1048A000A0F5807253425341DB06B6F8E2C00CEB30
:1048B0004002A6F8E220294AA9F818006244C9F883
:1048C000142002F12F4202F5700242EA856242F0A2
:1048D0000042C8F80020C8F88030002CC4D0002264
:1048E000C90001F1A04101F58011012DC1F884201A
:1048F000A2732CD1788AFFF70DFEB0F5007F22D08D
:10490000B0F5806F21D0A0F580735A425A41D2068B
:10491000B6F8E270C319A6F8E230104BA0823B440F
:10492000236103F12F4303F5700343EA856343F0EA
:1049300000434B60C1F8842096E70223B4E70323C9
:10494000B2E74020B1E70222E1E70322DFE740209F
:10495000DEE700BF00011050002011508001105010
:104960000E4B10B50021C3600446FFF765FF00221F
:1049700001210B4B1A60A4F8E2200A48CB0018442E
:10498000013103F1A04303F5801310298260C3F8BD
:104990008020C260C3F88420EFD110BDD40800107D
:1049A00000001150F8FF0F5038B51E4D854238D128
:1049B0002B78012B35D14FF080531B4A136002F541
:1049C00080521360A2F540529368DB00FCD5174C6F
:1049D0004FF480420021204600F0ACFA4FF48052A0
:1049E0000021134800F0A6FA092363670C230D4841
:1049F000A367FFF7B5FF012323644FF00053E3647F
:104A00000C4BC4F890306B68DB6823B14FF4003274
:104A1000094BC3F890200321BDE838400E2000F078
:104A2000A1BA38BD58870020002002400000115074
:104A30000000105010D00100002011500022A0F8FA
:104A4000E220D30003F1A04303F5801399680132FB
:104A500021F000419960D9680F2A21F00041D96006
:104A6000EFD17047CB0003F1A04303F58013D3F8D7
:104A7000840010F400600BD161B15A68002A0ADA90
:104A8000D3F8843013F4806F0CBF002002207047ED
:104A90000120704702207047CB0003F1A04303F5CB
:104AA0008013D3F88020120506D439B11B68002B7F
:104AB000B4BF0220002070470120704702207047D9
:104AC00010B502F12F42074B074C02F57002A342CA
:104AD00000D110BD194611F8010BC0B298540B4615
:104AE000F5E700BF000010500800105000EB8103F4
:104AF000DB6830B49C6922684AB15D8A5319013B76
:104B0000B3FBF5F39BB2A38130BCFFF721BD0123BA
:104B1000F9E70000002200EB8103DB685B69DA60E3
:104B2000FFF756BD11B90222074B9A66C90001F181
:104B3000A04101F58011D1F8843043F40063C1F83D
:104B40008430BFF34F8F70470020115011B90122FC
:104B5000074B9A66C90001F1A04101F58011D1F817
:104B6000803043F40063C1F88030BFF34F8F70474B
:104B70000020115051B1CB0003F1A04303F5801385
:104B8000D3F8842022F40062C3F88420002200EBD2
:104B90008100C3689B699A737047000051B1CB00D4
:104BA00003F1A04303F58013D3F8802022F40062C0
:104BB000C3F88020002200EB8100C3685B691A748F
:104BC000704700000123054A05491370054BC2E9EF
:104BD00002311A6822F080421A6070477088002003
:104BE0000C800D4000800D40034B044A1860936810
:104BF00030EA0303FBD1704700300240000002405E
:104C000008B50220FFF7F0FF4FF40010FFF7ECFFAC
:104C10004FF48010FFF7E8FFFEF748F800F016F8B1
:104C200000F01AF9BDE80840FEF74CBD08B500F0E9
:104C3000B1F90448FDF788FE4FF08052024B5A60EC
:104C400008BD00BF387C002000ED00E07047000088
:104C5000F0B5002504462A4B89B08163586005638E
:104C60000E4600F087F904F11003C4E904334FF055
:104C7000FF33C4E906350A23C4E900442362A56072
:104C8000656300F007F92B46024604F5D877C4E9BE
:104C90000A233846C4E96A55C4F8A051FFF7B6F8AC
:104CA00004F5E470FFF7B2F8384600F093F9154BBD
:104CB00001A90193736804F1F0000293B36801271E
:104CC00003938023CDE90654CDE90435FEF7CEFFEA
:104CD000E06080F88C70983000F07CF90A4B01A9F4
:104CE0000193F36804F14000029333690794CDE91E
:104CF0000337064BCDE90535FEF7FCFF09B0F0BDE3
:104D0000A07F0020F0080010F5080010ED0400203E
:104D1000024A536B18435063704700BF787C0020F1
:104D200000232D4A4FF0FF31D3601361536193612B
:104D3000D36113624FF0E022C2F88011C2F88411EF
:104D4000C2F88012C2F88412BFF34F8FBFF36F8F87
:104D5000C2F8943DBFF34F8FBFF36F8F1F4B2049B5
:104D6000C2F8083D1F4A13601F4A53F8040B42F86B
:104D7000040B8A42F9D11D4A1B4B42F00102DA6052
:104D80001A615A619A61DA61194A42F00102C3F864
:104D9000A820BFF34F8FBFF36F8F4FF0E022C2F810
:104DA000083DD2F8183423F47F0343F47003C2F8AB
:104DB0001834BFF34F8FBFF36F8FD2F8243D43F405
:104DC000E023C2F8243DBFF34F8FBFF36F8F012262
:104DD000084B1A60704700BF00800D4000000010B3
:104DE00000110820A0880020001008204D05002098
:104DF000F1040020800100200222014B1A6070475C
:104E0000800100200322034B1A60034B02F13B4256
:104E10001A61FEE78001002000800D4038B500F0E7
:104E2000B9F84FF0A043D3F80C44094DC3F80C4433
:104E3000EB68234204D0284624EA030400F052F829
:104E40001035002CF4D14FF08052024B5A6038BD1F
:104E50000000002000ED00E000210123044AC2E927
:104E6000001142F833100133112BFAD1704700BF03
:104E7000A8880020034611F8012B03F8012B002A13
:104E8000F9D1704701B40248844601BC604700BFB5
:104E9000AD08002001B40248844601BC604700BF51
:104EA000590E002001B40248844601BC604700BF8F
:104EB000550B002001B40248844601BC604700BF86
:104EC000710B002001B40248844601BC604700BF5A
:104ED000DD0C002001B40248844601BC604700BFDD
:104EE000ED09002001B40248844601BC604700BFC0
:104EF000290E002001B40248844601BC604700BF6F
:104F0000470A002001B40248844601BC604700BF44
:104F1000C909002001B40248844601BC604700BFB3
:104F20005B0A002001B40248844601BC604700BF10
:104F3000510A002001B40248844601BC604700BF0A
:104F4000190D002001B40248844601BC604700BF2F
:104F5000070D002001B40248844601BC604700BF31
:104F6000650A002001B40248844601BC604700BFC6
:104F7000290D002001B40248844601BC604700BFEF
:104F8000550D002001B40248844601BC604700BFB3
:104F90001508002001B40248844601BC604700BFE8
:104FA000DD07002001B40248844601BC604700BF11
:104FB0000509002001B40248844601BC604700BFD7
:104FC0005109002001B40248844601BC604700BF7B
:104FD0003D0A002001B40248844601BC604700BF7E
:104FE000F50A002001B40248844601BC604700BFB6
:104FF0001D0E002001B40248844601BC604700BF7A
:10500000FD07002001B40248844601BC604700BF90
:10501000F90B002001B40248844601BC604700BF80
:105020008D0B002001B40248844601BC604700BFDC
:105030009F0A002001B40248844601BC604700BFBB
:105040000908002001B40248844601BC604700BF43
:105050009D09002001B40248844601BC604700BF9E
:10506000AD0A002001B40248844601BC604700BF7D
:105070007D04002001B40248844601BC604700BFA3
:10508000910A002001B40248844601BC604700BF79
:10509000A304002001B40248844601BC604700BF5D
:1050A0006D08002001B40248844601BC604700BF7F
:1050B0002108002001B40248844601BC604700BFBB
:1050C000410B002001B40248844601BC604700BF88
:0C50D0008D0A002098B0FF7F0100000056
:00000001FF
